:020000040800F2
:100000000000022009040008F5030008F7030008B7
:10001000F9030008FB030008FD03000800000000CE
:10002000000000000000000000000000FF030008C6
:100030000104000800000000030400080504000893
:10004000590400085904000859040008590400081C
:10005000590400085904000859040008590400080C
:1000600059040008590400085904000859040008FC
:1000700059040008590400085904000859040008EC
:1000800059040008590400085904000859040008DC
:1000900059040008590400085904000859040008CC
:1000A00059040008590400085904000859040008BC
:1000B00059040008590400085904000859040008AC
:1000C000590400085904000859040008590400089C
:1000D000590400085904000859040008590400088C
:1000E000590400085904000859040008590400087C
:1000F000590400085904000859040008590400086C
:10010000590400085904000859040008590400085B
:10011000590400085904000859040008590400084B
:10012000590400085904000859040008590400083B
:10013000590400085904000859040008590400082B
:10014000590400085904000859040008590400081B
:10015000590400085904000859040008590400080B
:1001600059040008590400085904000859040008FB
:100170005904000859040008590400080000000050
:080180005904000859040008AD
:1001880010B5054C237833B9044B13B10448AFF3C9
:1001980000800123237010BD3404002000000000FB
:1001A8002C07000808B5034B1BB103490348AFF3FC
:1001B800008008BD00000000380400202C0700085B
:1001C80030B58BB0002404940594069407940894E1
:1001D80009941C4B1A6B42F004021A631A6B02F062
:1001E80004020392039A1A6B42F020021A631A6BF4
:1001F80002F020020292029A1A6B42F080021A63FD
:100208001A6B02F080020192019A1A6B42F0010205
:100218001A631B6B03F001030093009B0A484FF419
:10022800C063836104930125059504A900F011F9C1
:10023800049505940223089304A9044800F009F9D9
:100248000BB030BD003802400014024000000240EC
:1002580010B52D4A136823F0070343F00503136014
:10026800294B1B6803F00703052BF9D1274A1368AC
:1002780043F480431360254B5B6813F4804FFAD036
:10028800234A136843F480331360214B1B6813F42B
:10029800003FFAD01E4B5A681E4911401E4A0A43B5
:1002A8005A605A6822F440325A601A6842F08072E2
:1002B8001A60174B1B6813F0007FFAD0144B9A682A
:1002C80022F0F0029A609A6822F4E05242F4A052B6
:1002D8009A609A6822F4604242F400429A609A68EE
:1002E80022F0030242F002029A60094B9B6803F075
:1002F8000C03082BF9D1094C204600F053F920468D
:1003080000F076F910BD00BF003C024000700040CC
:10031800003802400080BFFF042A4000007A030A28
:1003280000B583B02C4B5A6C42F480425A645A6C24
:1003380002F480420192019A1A6C42F080521A64C7
:100348001B6C03F080530093009B244BD96821F465
:10035800E0610904090C224A0A43DA60DA68C2F348
:100368000222C2F10703042B28BF04231946131DD8
:10037800062B11D9033A4FF0FF338B40DB4303F0D0
:100388000F0393401B01DBB2144A82F82330FFF7B6
:100398005FFFFFF715FF08E00022ECE7114B4FF471
:1003A80000729A614FF480629A610F4B1B6913F0D7
:1003B800010FF3D00C4B1B6913F0010FFAD1094B55
:1003C8004FF000729A614FF080629A614FF4FA70B0
:1003D80000F0F8F8E9E700BF0038024000ED00E05F
:1003E8000003FA050014024000000240FEE7FEE7A1
:1003F800FEE7FEE7FEE770477047704770477047B3
:10040800DFF834D00D480E490E4A002302E0D458D4
:10041800C4500433C4188C42F9D30B4A0B4C002344
:1004280001E013600432A242FBD3FFF7E8FF00F0BB
:10043800E5F8FFF775FF7047000002200000002074
:100448003404002054070008340400205404002019
:10045800FEE70B6893FAA3F3B3FA83FC56E08D68C2
:10046800826893FAA3F4B4FA84F464004FF0030E9C
:100478000EFA04F422EA040293FAA3F4B4FA84F418
:10048800640005FA04F422438260CC68426822EAD8
:10049800030203FB04F42243426045E093FAA3F20B
:1004A800B2FA82F2072A15D84D69026A93FAA3F4C0
:1004B800B4FA84F4A4000F2606FA04F422EA04022B
:1004C80093FAA3F4B4FA84F4A40005FA04F42243DA
:1004D800026241E04C69456A1A0A92FAA2FEBEFA23
:1004E8008EFE4FEA8E0E0F2606FA0EFE25EA0E0540
:1004F80092FAA2F2B2FA82F2920004FA02F22A43C3
:10050800426229E0002070BD0CF1010C0B6833FA3F
:100518000CF244D0012202FA0CF21340F4D070B568
:100528004A68013A012A9AD9C26893FAA3F4B4FA3C
:1005380084F46400032505FA04F422EA040293FA19
:10054800A3F4B4FA84F464000D6905FA04F42243B0
:10055800C2604A68022AA1D04A68046893FAA3FED6
:10056800BEFA8EFE4FEA4E0E032505FA0EFE24EA69
:100578000E0E93FAA3F3B3FA83F35B0002FA03F3C4
:100588004EEA030303600CF1010C0B6833FA0CF21A
:10059800B8D0012202FA0CF21340F4D0C0E70020D0
:1005A80070470000064BA3FB00239B09013B4FF05B
:1005B800E02253610023936105231361704700BF54
:1005C800D34D621082B04FF0E0231B690193019B69
:1005D800B0F1FF3F00D0013038B14FF0E0231B6984
:1005E80013F4803FF8D00138F6E702B070470000F6
:1005F800014B1860704700BF0000002070B50D4E19
:100608000D4D761BB61006D0002455F8043B013476
:100618009847A642F9D1094E094D761B00F082F899
:10062800B61006D0002455F8043B01349847A6427A
:10063800F9D170BD480700084807000850070008AE
:1006480048070008024B13B1024800F005B870478C
:10065800000000006D060008002301461A461846EF
:1006680000F01AB838B5084B084D5B1B9C1007D032
:10067800043B1D44013C55F804399847002CF9D136
:10068800BDE8384000F054B8540700085007000887
:10069800704700BF704700BF2DE9F047DFF87CA026
:1006A8000646DAF8000098460F469146FFF7F0FF35
:1006B8001B4B1B68D3F8484124B365681F2D26DC03
:1006C8005EB96B1C0235DAF80000636044F82570E7
:1006D800FFF7E0FF0020BDE8F08704EB8501012368
:1006E800C1F88890D4F88821AB401A43022EC4F888
:1006F8008821C1F80881E4D1D4F88C211343C4F8C7
:100708008C31DEE703F5A674C3F84841D5E7DAF87B
:100718000000FFF7BFFF4FF0FF30DCE73004002098
:1007280044070008F8B500BFF8BC08BC9E467047EF
:0C073800F8B500BFF8BC08BC9E46704736
:040744000800002089
:080748004D060008AD01000898
:040750008901000813
:100754000024F4000000000000000000F402002067
:100764005C030020C403002000000000000000001F
:100774000000000000000000000000000000000075
:100784000000000000000000000000000000000065
:100794000000000000000000000000000000000055
:1007A4000000000000000000000000000000000045
:1007B4000000000000000000000000000000000035
:1007C4000000000000000000000000000000000025
:1007D4000000000000000000000000000000000015
:1007E4000000000000000000000000000000000005
:1007F40000000000000000000000000000000000F5
:1008040001000000000000000E33CDAB34126DE691
:10081400ECDE05000B0000000000000000000000FA
:1008240000000000000000000000000000000000C4
:1008340000000000000000000000000000000000B4
:1008440000000000000000000000000000000000A4
:100854000000000000000000000000000000000094
:040B840050040020F9
:0400000508000409E2
:00000001FF
